{
  "contractName": "DappToken",
  "abi": [
    {
      "inputs": [
        {
          "internalType": "uint256",
          "name": "_initialSupply",
          "type": "uint256"
        }
      ],
      "stateMutability": "nonpayable",
      "type": "constructor"
    },
    {
      "anonymous": false,
      "inputs": [
        {
          "indexed": true,
          "internalType": "address",
          "name": "_owner",
          "type": "address"
        },
        {
          "indexed": true,
          "internalType": "address",
          "name": "_spender",
          "type": "address"
        },
        {
          "indexed": false,
          "internalType": "uint256",
          "name": "_value",
          "type": "uint256"
        }
      ],
      "name": "Approval",
      "type": "event"
    },
    {
      "anonymous": false,
      "inputs": [
        {
          "indexed": true,
          "internalType": "address",
          "name": "_from",
          "type": "address"
        },
        {
          "indexed": true,
          "internalType": "address",
          "name": "_to",
          "type": "address"
        },
        {
          "indexed": false,
          "internalType": "uint256",
          "name": "_value",
          "type": "uint256"
        }
      ],
      "name": "Transfer",
      "type": "event"
    },
    {
      "inputs": [
        {
          "internalType": "address",
          "name": "",
          "type": "address"
        },
        {
          "internalType": "address",
          "name": "",
          "type": "address"
        }
      ],
      "name": "allowance",
      "outputs": [
        {
          "internalType": "uint256",
          "name": "",
          "type": "uint256"
        }
      ],
      "stateMutability": "view",
      "type": "function",
      "constant": true
    },
    {
      "inputs": [
        {
          "internalType": "address",
          "name": "",
          "type": "address"
        }
      ],
      "name": "balanceOf",
      "outputs": [
        {
          "internalType": "uint256",
          "name": "",
          "type": "uint256"
        }
      ],
      "stateMutability": "view",
      "type": "function",
      "constant": true
    },
    {
      "inputs": [],
      "name": "name",
      "outputs": [
        {
          "internalType": "string",
          "name": "",
          "type": "string"
        }
      ],
      "stateMutability": "view",
      "type": "function",
      "constant": true
    },
    {
      "inputs": [],
      "name": "symbol",
      "outputs": [
        {
          "internalType": "string",
          "name": "",
          "type": "string"
        }
      ],
      "stateMutability": "view",
      "type": "function",
      "constant": true
    },
    {
      "inputs": [],
      "name": "totalSupply",
      "outputs": [
        {
          "internalType": "uint256",
          "name": "",
          "type": "uint256"
        }
      ],
      "stateMutability": "view",
      "type": "function",
      "constant": true
    },
    {
      "inputs": [
        {
          "internalType": "address",
          "name": "_to",
          "type": "address"
        },
        {
          "internalType": "uint256",
          "name": "_value",
          "type": "uint256"
        }
      ],
      "name": "transfer",
      "outputs": [
        {
          "internalType": "bool",
          "name": "success",
          "type": "bool"
        }
      ],
      "stateMutability": "nonpayable",
      "type": "function"
    },
    {
      "inputs": [
        {
          "internalType": "address",
          "name": "_spender",
          "type": "address"
        },
        {
          "internalType": "uint256",
          "name": "_value",
          "type": "uint256"
        }
      ],
      "name": "approve",
      "outputs": [
        {
          "internalType": "bool",
          "name": "success",
          "type": "bool"
        }
      ],
      "stateMutability": "nonpayable",
      "type": "function"
    },
    {
      "inputs": [
        {
          "internalType": "address",
          "name": "_from",
          "type": "address"
        },
        {
          "internalType": "address",
          "name": "_to",
          "type": "address"
        },
        {
          "internalType": "uint256",
          "name": "_value",
          "type": "uint256"
        }
      ],
      "name": "transferFrom",
      "outputs": [
        {
          "internalType": "bool",
          "name": "success",
          "type": "bool"
        }
      ],
      "stateMutability": "nonpayable",
      "type": "function"
    }
  ],
  "bytecode": "0x60806040526040518060400160405280600581526020017f546f6b656e000000000000000000000000000000000000000000000000000000815250600090816200004a919062000391565b506040518060400160405280600381526020017f464f4d00000000000000000000000000000000000000000000000000000000008152506001908162000091919062000391565b503480156200009f57600080fd5b50604051620010df380380620010df8339818101604052810190620000c59190620004ae565b80600360003373ffffffffffffffffffffffffffffffffffffffff1673ffffffffffffffffffffffffffffffffffffffff168152602001908152602001600020819055508060028190555050620004e0565b600081519050919050565b7f4e487b7100000000000000000000000000000000000000000000000000000000600052604160045260246000fd5b7f4e487b7100000000000000000000000000000000000000000000000000000000600052602260045260246000fd5b600060028204905060018216806200019957607f821691505b602082108103620001af57620001ae62000151565b5b50919050565b60008190508160005260206000209050919050565b60006020601f8301049050919050565b600082821b905092915050565b600060088302620002197fffffffffffffffffffffffffffffffffffffffffffffffffffffffffffffffff82620001da565b620002258683620001da565b95508019841693508086168417925050509392505050565b6000819050919050565b6000819050919050565b6000620002726200026c62000266846200023d565b62000247565b6200023d565b9050919050565b6000819050919050565b6200028e8362000251565b620002a66200029d8262000279565b848454620001e7565b825550505050565b600090565b620002bd620002ae565b620002ca81848462000283565b505050565b5b81811015620002f257620002e6600082620002b3565b600181019050620002d0565b5050565b601f82111562000341576200030b81620001b5565b6200031684620001ca565b8101602085101562000326578190505b6200033e6200033585620001ca565b830182620002cf565b50505b505050565b600082821c905092915050565b6000620003666000198460080262000346565b1980831691505092915050565b600062000381838362000353565b9150826002028217905092915050565b6200039c8262000117565b67ffffffffffffffff811115620003b857620003b762000122565b5b620003c4825462000180565b620003d1828285620002f6565b600060209050601f831160018114620004095760008415620003f4578287015190505b62000400858262000373565b86555062000470565b601f1984166200041986620001b5565b60005b8281101562000443578489015182556001820191506020850194506020810190506200041c565b868310156200046357848901516200045f601f89168262000353565b8355505b6001600288020188555050505b505050505050565b600080fd5b62000488816200023d565b81146200049457600080fd5b50565b600081519050620004a8816200047d565b92915050565b600060208284031215620004c757620004c662000478565b5b6000620004d78482850162000497565b91505092915050565b610bef80620004f06000396000f3fe608060405234801561001057600080fd5b50600436106100885760003560e01c806370a082311161005b57806370a082311461012957806395d89b4114610159578063a9059cbb14610177578063dd62ed3e146101a757610088565b806306fdde031461008d578063095ea7b3146100ab57806318160ddd146100db57806323b872dd146100f9575b600080fd5b6100956101d7565b6040516100a291906108a7565b60405180910390f35b6100c560048036038101906100c09190610962565b610265565b6040516100d291906109bd565b60405180910390f35b6100e3610357565b6040516100f091906109e7565b60405180910390f35b610113600480360381019061010e9190610a02565b61035d565b60405161012091906109bd565b60405180910390f35b610143600480360381019061013e9190610a55565b6105e3565b60405161015091906109e7565b60405180910390f35b6101616105fb565b60405161016e91906108a7565b60405180910390f35b610191600480360381019061018c9190610962565b610689565b60405161019e91906109bd565b60405180910390f35b6101c160048036038101906101bc9190610a82565b6107f2565b6040516101ce91906109e7565b60405180910390f35b600080546101e490610af1565b80601f016020809104026020016040519081016040528092919081815260200182805461021090610af1565b801561025d5780601f106102325761010080835404028352916020019161025d565b820191906000526020600020905b81548152906001019060200180831161024057829003601f168201915b505050505081565b600081600460003373ffffffffffffffffffffffffffffffffffffffff1673ffffffffffffffffffffffffffffffffffffffff16815260200190815260200160002060008573ffffffffffffffffffffffffffffffffffffffff1673ffffffffffffffffffffffffffffffffffffffff168152602001908152602001600020819055508273ffffffffffffffffffffffffffffffffffffffff163373ffffffffffffffffffffffffffffffffffffffff167f8c5be1e5ebec7d5bd14f71427d1e84f3dd0314c0f7b2291e5b200ac8c7c3b9258460405161034591906109e7565b60405180910390a36001905092915050565b60025481565b6000600360008573ffffffffffffffffffffffffffffffffffffffff1673ffffffffffffffffffffffffffffffffffffffff168152602001908152602001600020548211156103ab57600080fd5b600460008573ffffffffffffffffffffffffffffffffffffffff1673ffffffffffffffffffffffffffffffffffffffff16815260200190815260200160002060003373ffffffffffffffffffffffffffffffffffffffff1673ffffffffffffffffffffffffffffffffffffffff1681526020019081526020016000205482111561043457600080fd5b81600360008673ffffffffffffffffffffffffffffffffffffffff1673ffffffffffffffffffffffffffffffffffffffff16815260200190815260200160002060008282546104839190610b51565b9250508190555081600360008573ffffffffffffffffffffffffffffffffffffffff1673ffffffffffffffffffffffffffffffffffffffff16815260200190815260200160002060008282546104d99190610b85565b9250508190555081600460008673ffffffffffffffffffffffffffffffffffffffff1673ffffffffffffffffffffffffffffffffffffffff16815260200190815260200160002060003373ffffffffffffffffffffffffffffffffffffffff1673ffffffffffffffffffffffffffffffffffffffff168152602001908152602001600020600082825461056c9190610b51565b925050819055508273ffffffffffffffffffffffffffffffffffffffff168473ffffffffffffffffffffffffffffffffffffffff167fddf252ad1be2c89b69c2b068fc378daa952ba7f163c4a11628f55a4df523b3ef846040516105d091906109e7565b60405180910390a3600190509392505050565b60036020528060005260406000206000915090505481565b6001805461060890610af1565b80601f016020809104026020016040519081016040528092919081815260200182805461063490610af1565b80156106815780601f1061065657610100808354040283529160200191610681565b820191906000526020600020905b81548152906001019060200180831161066457829003601f168201915b505050505081565b600081600360003373ffffffffffffffffffffffffffffffffffffffff1673ffffffffffffffffffffffffffffffffffffffff1681526020019081526020016000205410156106d757600080fd5b81600360003373ffffffffffffffffffffffffffffffffffffffff1673ffffffffffffffffffffffffffffffffffffffff16815260200190815260200160002060008282546107269190610b51565b9250508190555081600360008573ffffffffffffffffffffffffffffffffffffffff1673ffffffffffffffffffffffffffffffffffffffff168152602001908152602001600020600082825461077c9190610b85565b925050819055508273ffffffffffffffffffffffffffffffffffffffff163373ffffffffffffffffffffffffffffffffffffffff167fddf252ad1be2c89b69c2b068fc378daa952ba7f163c4a11628f55a4df523b3ef846040516107e091906109e7565b60405180910390a36001905092915050565b6004602052816000526040600020602052806000526040600020600091509150505481565b600081519050919050565b600082825260208201905092915050565b60005b83811015610851578082015181840152602081019050610836565b60008484015250505050565b6000601f19601f8301169050919050565b600061087982610817565b6108838185610822565b9350610893818560208601610833565b61089c8161085d565b840191505092915050565b600060208201905081810360008301526108c1818461086e565b905092915050565b600080fd5b600073ffffffffffffffffffffffffffffffffffffffff82169050919050565b60006108f9826108ce565b9050919050565b610909816108ee565b811461091457600080fd5b50565b60008135905061092681610900565b92915050565b6000819050919050565b61093f8161092c565b811461094a57600080fd5b50565b60008135905061095c81610936565b92915050565b60008060408385031215610979576109786108c9565b5b600061098785828601610917565b92505060206109988582860161094d565b9150509250929050565b60008115159050919050565b6109b7816109a2565b82525050565b60006020820190506109d260008301846109ae565b92915050565b6109e18161092c565b82525050565b60006020820190506109fc60008301846109d8565b92915050565b600080600060608486031215610a1b57610a1a6108c9565b5b6000610a2986828701610917565b9350506020610a3a86828701610917565b9250506040610a4b8682870161094d565b9150509250925092565b600060208284031215610a6b57610a6a6108c9565b5b6000610a7984828501610917565b91505092915050565b60008060408385031215610a9957610a986108c9565b5b6000610aa785828601610917565b9250506020610ab885828601610917565b9150509250929050565b7f4e487b7100000000000000000000000000000000000000000000000000000000600052602260045260246000fd5b60006002820490506001821680610b0957607f821691505b602082108103610b1c57610b1b610ac2565b5b50919050565b7f4e487b7100000000000000000000000000000000000000000000000000000000600052601160045260246000fd5b6000610b5c8261092c565b9150610b678361092c565b9250828203905081811115610b7f57610b7e610b22565b5b92915050565b6000610b908261092c565b9150610b9b8361092c565b9250828201905080821115610bb357610bb2610b22565b5b9291505056fea264697066735822122012ad9cf278a6cefcc11ecfdef78174bae9532ec10c1a44cbbfa2f4461304c95d64736f6c63430008100033",
  "immutableReferences": {},
  "source": "pragma solidity >=0.4.22 <0.9.0; //verwendete Solidity-Version\r\n\r\ncontract DappToken { // ERC20 SmartContract\r\n\t\r\n\tstring public name = \"Token\"; // optional nach ERC20-Standard: Initialisierung Token-Namen.\r\n\tstring public symbol = \"FOM\"; // optional nach ERC20-Standard: Initialisierung Token-Symbol.\r\n\tuint256 public totalSupply; // zwingend nach ERC20-Standard: Variable for total number of token.\r\n\r\n\tmapping(address => uint256) public balanceOf; //zwingend nach ERC20-Standard: Mappt die Adresse und die zugehrige Tokenanzahl -> kann ausgelesen werden um Guthaben zu erfahren.\r\n\tmapping(address => mapping(address => uint256)) public allowance; //zwingend nach ERC20-Standard: Mappt zwei Adressen und die zugehrigen bevollmchtigten Token, s. u. transferFrom.\r\n\t\r\n\r\n\r\n\tevent Transfer(\t\t\t\t//zwingend nach ERC20-Standard: Wird von der transfer-Funktion aufgerufen.\r\n\t\taddress indexed _from,\r\n\t\taddress indexed _to,\r\n\t\tuint256 _value\r\n\t\t);\r\n\r\n\tevent Approval(\t\t\t\t//zwingend nach ERC20-Standard: Wird von der approve-Funktion aufgerufen.\r\n\t\taddress indexed _owner,\r\n\t\taddress indexed _spender,\r\n\t\tuint256 _value\r\n\t\t);\r\n\t\t\r\n\r\n\tconstructor  (uint256 _initialSupply) { \t// Constructor - wird bei Deployement des Smart-Contracts aufgerufen.\r\n\t\tbalanceOf[msg.sender] = _initialSupply; // msg.sender entspricht dem Deployer des Tokens. Dieser bekommt bei Deployment alle Token zugewiesen.\r\n\t\ttotalSupply = _initialSupply; \t\t\t// Die insgesamt verfgbare Menge wird bei Deployment gedeckelt.\r\n\t}\r\n\r\n\r\n\t//transfer-Funktion - zwingend nach ERC20-Standard: Ermglicht es Tokens zu transferieren.\r\n\tfunction transfer(address _to, uint256 _value) public returns (bool success) {\r\n\t\trequire(balanceOf[msg.sender] >= _value); \t// Prfung: Verfgt der Sendende ber die Menge Tokens, die er senden will.\r\n\t\tbalanceOf[msg.sender] -= _value;\t\t\t// Der Sendende bekommt die gesendete Menge an Tokens abgezogen.\r\n\t\tbalanceOf[_to] += _value;\t\t\t\t\t// Der Empfangende bekommt die gesendete Menge an Tokens gutgeschrieben.\r\n\t\temit Transfer(msg.sender, _to, _value);\t\t// Das Transfer-Event wird nach erfolgreichem Transfer aufgerufen.\r\n\t\treturn true; \t\t\t\t\t\t\t\t// True-Rckgabe signalisiert, das die transfer-Funktion erfolgreich durchgelaufen ist.\r\n\t\t\r\n\t}\r\n\r\n\t//Im Folgenden: Funktionen, die es ermglichen einen Dritten zum Transfer der eigenen Token zu bevollmchtigen.\r\n\r\n\t//approve-Funktion - zwingend nach ERC20-Standard: Aufrufer der Funktion ermchtigt den _spender Tokens in Hhe von _value auszugeben.\r\n\tfunction approve(address _spender, uint256 _value) public returns(bool success){ //approve an accounts to spend value x\r\n\t\tallowance[msg.sender][_spender] = _value; \t// erhht die allowance (s.o.) um den Betrage _value.\r\n\r\n\t\temit Approval(msg.sender, _spender, _value);// Das Approval-Event wird nach erfolgreichem Transfer aufgerufen.\r\n\r\n\t\treturn true;\t\t\t\t\t\t\t\t// True-Rckgabe signalisiert, das die transfer-Funktion erfolgreich durchgelaufen ist.\r\n\t}\r\n\t// transferFrom-Funktion - zwingend nach ERC20-Standard: Bevollmchtigt einen anderen Account (_to) einen Betrag in Hhe von _value auszugeben. Der Aufrufer der Funktion (msg.sender) ist der Bevollmchtigte.\r\n\tfunction transferFrom(address _from, address _to, uint256 _value) public returns (bool success){\r\n\t\trequire(_value <= balanceOf[_from]); \t\t\t// Prfung: Hat der Bevollmchtigende berhaupt die Tokens, die potenziell freigegeben sind.\r\n\t\trequire(_value <= allowance[_from][msg.sender]);// Prfung: Besteht berhaupt die Bevollmchtigung von _from an msg.sender in Hhe der angegeben Token.\r\n\r\n\t\tbalanceOf[_from] -= _value;\t\t\t\t\t\t// Der Bevollmchtigende bekommt seine Tokenanzahl entsprechend _value erniedrigt.\r\n\t\tbalanceOf[_to] += _value;\t\t\t\t\t\t// Der Empfnger bekommt seine Tokenanzahl entsprechend _value erhht.\r\n\r\n\t\tallowance[_from][msg.sender] -= _value;\t\t\t// Da der Bevollmchtigte nun einen Teil des Guthabens ber das er verfgen darf ausgegeben hat, wird die allowance entsprechend reduziert.\r\n\t\t\r\n\t\temit Transfer(_from, _to, _value);\t\t\t\t// Das Transfer-Event wird nach erfolgreichem Transfer aufgerufen.\r\n\r\n\t\treturn true;\t\t\t\t\t\t\t\t\t// True-Rckgabe signalisiert, das die transfer-Funktion erfolgreich durchgelaufen ist.\r\n\t}\r\n}",
  "sourcePath": "C:\\Users\\Bro\\Desktop\\bachelorarbeit\\_Ico_project\\token_sale\\contracts\\DappToken.sol",
  "compiler": {
    "name": "solc",
    "version": "0.8.16+commit.07a7930e.Emscripten.clang"
  },
  "schemaVersion": "3.4.9",
  "updatedAt": "2022-09-18T09:47:25.490Z",
  "networkType": "ethereum",
  "devdoc": {
    "kind": "dev",
    "methods": {},
    "version": 1
  },
  "userdoc": {
    "kind": "user",
    "methods": {},
    "version": 1
  }
}