{
  "contractName": "TokenSale",
  "abi": [
    {
      "inputs": [
        {
          "internalType": "contract DappToken",
          "name": "_tokenContract",
          "type": "address"
        },
        {
          "internalType": "uint256",
          "name": "_tokenPrice",
          "type": "uint256"
        }
      ],
      "stateMutability": "nonpayable",
      "type": "constructor"
    },
    {
      "inputs": [],
      "name": "tokenContract",
      "outputs": [
        {
          "internalType": "contract DappToken",
          "name": "",
          "type": "address"
        }
      ],
      "stateMutability": "view",
      "type": "function",
      "constant": true
    },
    {
      "inputs": [],
      "name": "tokenPrice",
      "outputs": [
        {
          "internalType": "uint256",
          "name": "",
          "type": "uint256"
        }
      ],
      "stateMutability": "view",
      "type": "function",
      "constant": true
    },
    {
      "inputs": [],
      "name": "tokensSold",
      "outputs": [
        {
          "internalType": "uint256",
          "name": "",
          "type": "uint256"
        }
      ],
      "stateMutability": "view",
      "type": "function",
      "constant": true
    },
    {
      "inputs": [
        {
          "internalType": "uint256",
          "name": "_numberOfTokens",
          "type": "uint256"
        }
      ],
      "name": "buyTokens",
      "outputs": [],
      "stateMutability": "payable",
      "type": "function",
      "payable": true
    }
  ],
  "bytecode": "0x608060405234801561001057600080fd5b506040516104333803806104338339818101604052810190610032919061016c565b336000806101000a81548173ffffffffffffffffffffffffffffffffffffffff021916908373ffffffffffffffffffffffffffffffffffffffff16021790555081600160006101000a81548173ffffffffffffffffffffffffffffffffffffffff021916908373ffffffffffffffffffffffffffffffffffffffff1602179055508060028190555050506101ac565b600080fd5b600073ffffffffffffffffffffffffffffffffffffffff82169050919050565b60006100f1826100c6565b9050919050565b6000610103826100e6565b9050919050565b610113816100f8565b811461011e57600080fd5b50565b6000815190506101308161010a565b92915050565b6000819050919050565b61014981610136565b811461015457600080fd5b50565b60008151905061016681610140565b92915050565b60008060408385031215610183576101826100c1565b5b600061019185828601610121565b92505060206101a285828601610157565b9150509250929050565b610278806101bb6000396000f3fe60806040526004361061003f5760003560e01c80633610724e14610044578063518ab2a81461006057806355a373d61461008b5780637ff9b596146100b6575b600080fd5b61005e60048036038101906100599190610151565b6100e1565b005b34801561006c57600080fd5b506100756100e4565b604051610082919061018d565b60405180910390f35b34801561009757600080fd5b506100a06100ea565b6040516100ad9190610227565b60405180910390f35b3480156100c257600080fd5b506100cb610110565b6040516100d8919061018d565b60405180910390f35b50565b60035481565b600160009054906101000a900473ffffffffffffffffffffffffffffffffffffffff1681565b60025481565b600080fd5b6000819050919050565b61012e8161011b565b811461013957600080fd5b50565b60008135905061014b81610125565b92915050565b60006020828403121561016757610166610116565b5b60006101758482850161013c565b91505092915050565b6101878161011b565b82525050565b60006020820190506101a2600083018461017e565b92915050565b600073ffffffffffffffffffffffffffffffffffffffff82169050919050565b6000819050919050565b60006101ed6101e86101e3846101a8565b6101c8565b6101a8565b9050919050565b60006101ff826101d2565b9050919050565b6000610211826101f4565b9050919050565b61022181610206565b82525050565b600060208201905061023c6000830184610218565b9291505056fea264697066735822122050e39ddf04039e7a3cd22093c31833279990eee364893d9522f6af998ec5bd1664736f6c63430008100033",
  "immutableReferences": {},
  "source": "pragma solidity >=0.4.22 <0.9.0;\r\n\r\nimport \"./DappToken.sol\";\r\n\r\ncontract TokenSale {\r\n    address admin; //not public - don't expose adress of admin\r\n    DappToken public tokenContract;\r\n    uint256 public tokenPrice;\r\n    uint256 public tokensSold;\r\n\r\n\r\n  \tconstructor(DappToken _tokenContract, uint256 _tokenPrice){\r\n        admin = msg.sender;\r\n        tokenContract = _tokenContract;\r\n        tokenPrice = _tokenPrice;\r\n    }\r\n\r\n    //Buy Token\r\n    function buyTokens(uint256 _numberOfTokens) public payable{ // payable enables to send ether\r\n    \t\r\n    \t// require value euqal to tokenprice\r\n    \t// require enough tokens in the contract left\r\n    \t// require that a transfer is successfull\r\n    \t// track number tokens sold\r\n    \t// emit sell event\r\n    }\r\n\r\n}",
  "sourcePath": "C:\\Users\\Bro\\Desktop\\bachelorarbeit\\_Ico_project\\token_sale\\contracts\\TokenSale.sol",
  "compiler": {
    "name": "solc",
    "version": "0.8.16+commit.07a7930e.Emscripten.clang"
  },
  "schemaVersion": "3.4.9",
  "updatedAt": "2022-09-08T07:52:58.350Z",
  "networkType": "ethereum",
  "devdoc": {
    "kind": "dev",
    "methods": {},
    "version": 1
  },
  "userdoc": {
    "kind": "user",
    "methods": {},
    "version": 1
  }
}